:020000040800F2
:1000000000200020591D0008650B0008670B000840
:1000100000000000000000000000000000000000E0
:10002000000000000000000000000000690B000854
:1000300000000000000000006B0B00086D0B0008C2
:10004000A91D0008A91D0008A91D0008A91D000878
:10005000A91D00081D070008A91D0008A91D00080A
:10006000A91D0008A91D0008A91D0008A91D000858
:10007000E5070008A91D0008A91D0008A91D000822
:10008000A91D0008A91D000800000000A91D000806
:10009000A91D0008A91D0008A91D0008A91D000828
:1000A000A91D0008A91D0008A91D0008A91D000818
:1000B000A91D000800000000A91D000800000000A4
:1000C00003B47146490840004900095E49008E4466
:1000D00003BC7047002243088B4274D303098B4250
:1000E0005FD3030A8B4244D3030B8B4228D3030C08
:1000F0008B420DD3FF22090212BA030C8B4202D3AA
:100100001212090265D0030B8B4219D300E0090AD1
:10011000C30B8B4201D3CB03C01A5241830B8B42DA
:1001200001D38B03C01A5241430B8B4201D34B03C3
:10013000C01A5241030B8B4201D30B03C01A524128
:10014000C30A8B4201D3CB02C01A5241830A8B42AD
:1001500001D38B02C01A5241430A8B4201D34B0296
:10016000C01A5241030A8B4201D30B02C01A5241FA
:10017000CDD2C3098B4201D3CB01C01A52418309AE
:100180008B4201D38B01C01A524143098B4201D3E8
:100190004B01C01A524103098B4201D30B01C01A13
:1001A0005241C3088B4201D3CB00C01A524183088D
:1001B0008B4201D38B00C01A524143088B4201D3BA
:1001C0004B00C01A5241411A00D20146524110461A
:1001D0007047FFE701B5002000F006F802BDC046F9
:1001E0000029F7D076E770477047C0468446100074
:1001F00062468C461900634600E0C0461FB503F016
:1002000021FA002801D40021C8421FBD10B503F017
:1002100061F94042013010BD10B503F013FA002817
:1002200001DB002010BD012010BDC04610B503F059
:1002300009FA002801DD002010BD012010BDC046D4
:1002400010B503F08BF9002801DC002010BD01205F
:1002500010BDC04610B503F081F9002801DA002076
:1002600010BD012010BDC0461C2101231B04984273
:1002700001D3000C10391B0A984201D3000A083937
:100280001B09984201D30009043902A2105C4018EE
:100290007047C04604030202010101010000000092
:1002A0000000000010B5064C2378002B07D1054B49
:1002B000002B02D0044800E000BF0123237010BDD2
:1002C000640000200000000028370008044B10B52F
:1002D000002B03D00349044800E000BF10BDC04616
:1002E000000000006800002028370008F0B5C6466E
:1002F00000B58CB00AAD08220021280001F076FD7F
:100300001822002104A801F071FD274B5A698021B1
:10031000C9030A435A615A690A400392039A5A6907
:10032000802189020A435A615A690A400292029A5C
:100330005A698021C9020A435A615B690B400193E3
:10034000019B1A4F80239846BB62194A93680F217C
:100350008B4393609022D205D3680C398B430124E0
:100360002343D36013688B4313600A942C710026D7
:100370006E71AC71280001F029FC4346049305948A
:1003800006960796089604A9380001F083FC00221F
:100390000021052000F07EFF052000F07FFF0CB05B
:1003A00080BCB846F0BDC0460010024000040048C2
:1003B0000000014082B0430018180023019304E0BC
:1003C000C046C046019B01330193019B8342F7D392
:1003D00002B0704770B51420FFF7ECFF0A4CA36918
:1003E00080252D022B43A3611420FFF7E3FFA269B0
:1003F00080231B061343A3611420FFF7DBFFA369CF
:100400001D43A56170BDC0460008004810B504003A
:10041000454A91698023DB010B43936143B2002B72
:1004200046DB9022D205916980231B060B43936122
:10043000630645D59022D205916980235B010B4369
:100440009361A30644D5394A916980239B000B43ED
:100450009361E30643D5354A916980235B000B43E2
:100460009361FFF7B7FF230740D59022D20591692A
:1004700080231B020B43936163073FD59022D20573
:10048000916980235B010B439361A3073ED5274A03
:10049000916980239B000B439361E4073DD5234A78
:1004A000916980235B000B439361FFF793FF10BDBD
:1004B0009022D205916980231B020B439361B7E719
:1004C0009022D205916980235B050B439361B8E7C5
:1004D000164A916980239B040B439361B9E7134A41
:1004E000916980235B040B439361BAE79022D205A4
:1004F000916980231B060B439361BDE79022D205CF
:10050000916980235B050B439361BEE7074A9169BC
:1005100080239B040B439361BFE7044A91698023C6
:100520005B040B439361C0E70008004800040048E7
:1005300070B50500002403E0FFF768FF0134E4B262
:10054000285D0028F8D170BD10B50400474A9169B4
:100550008023DB050B43936143B2002B49DB9022E0
:10056000D205916980231B060B439361630648D52E
:100570009022D205916980235B010B439361A3060E
:1005800047D53B4A916980239B000B439361E30667
:1005900046D5374A916980235B000B439361FFF78F
:1005A00019FF230743D59022D205916980231B02AE
:1005B0000B439361630742D59022D2059169802352
:1005C0005B010B439361A30741D5294A91698023BD
:1005D0009B000B439361E40740D5254A9169802332
:1005E0005B000B439361FFF7F5FE2248FFF7E2FE45
:1005F00010BD9022D205916980231B020B439361A9
:10060000B4E79022D205916980235B050B43936187
:10061000B5E7174A916980239B040B439361B6E7C2
:10062000134A916980235B040B439361B7E79022DF
:10063000D205916980231B060B439361BAE7902290
:10064000D205916980235B050B439361BBE7084AA0
:10065000916980239B040B439361BCE7044A916931
:1006600080235B040B439361BDE7C046000800484C
:1006700000040048B80B000010B51B4B59698022DC
:1006800092020A435A6159698022D2020A435A618E
:100690005969802212030A435A619022D2051168D7
:1006A0008223DB050B431360104A1168A023DB0291
:1006B0000B4313600E4A1168A023DB050B43136044
:1006C0000C48FFF777FE3320FFF73EFF3220FFF79D
:1006D0003BFF0C20FFF738FF2820FFF735FF0120F4
:1006E000FFF732FF10BDC046001002400004004872
:1006F0000008004830750000074B1A68FA235B00B9
:100700009A4204D0044BFA2252001A607047024BFE
:10071000FA2292001A60F9E70400002010B500F0F8
:100720006FFA0E4B1B68C01A06280ED90C4B1B68BB
:10073000012B0ED00A4B01221A60094B1868FFF7F3
:10074000DBFF00F05DFA054B1860012000F084FE2D
:1007500010BD034B02221A60EFE7C0468000002064
:100760000000002070B5074C200000F0EDFB2000D9
:1007700000F03CFC044D2860200000F015FC2868C7
:1007800070BDC046D40000208800002010B502F0E3
:100790007DFE0022024B01F0D9FF01F0B9FF10BD30
:1007A0000070274070B504000A4D2868FFF7EEFF7F
:1007B000094B18600948FFF7FDFD0120FFF7C4FE53
:1007C0002A680749200001F0F1FA2000FFF7B0FE87
:1007D00070BDC0468800002084000020B80B0000D7
:1007E0004037000810B5054C200000F0FFFB044B1B
:1007F0001860200000F000FC10BDC046D4000020AE
:100800008800002072B6FEE700B585B00C220021FA
:1008100001A801F0EBFA2148214B0360002343605B
:100820008360C36001220261042141610376437643
:100830008376C376C221FF31C16103629E39FF39DD
:100840004354826200F0BEFA002822D106230193AD
:1008500080235B01029380235B0503930F4801A96A
:1008600000F032FC002816D10D4A916880231B0647
:100870000B4393600A4B9B68002BFBDB084A936891
:1008800001210B439360064B1B68DB07FBD505B0CA
:1008900000BDFFF7B7FFFFF7B5FFC046D40000204B
:1008A0000024014000B58FB0102200210AA801F0F9
:1008B0009DFA0822002108A801F098FA1C220021C4
:1008C00001A801F093FA2048204B03600023436005
:1008D00083601F4AC2600361836100F013FF002838
:1008E00028D180235B010A9317480AA901F028F850
:1008F000002821D1144800F031FF00281ED1002328
:1009000008930993104808A901F02AF9002817D183
:100910006023019300230293039305930A4808225E
:1009200001A900F089FF00280CD1074800F0F2F877
:100930000FB000BDFFF766FFFFF764FFFFF762FF30
:10094000FFF760FFFFF75EFF8C000020000400400F
:100950007FBB000010B5244A136801218B4313604C
:10096000214B1B68DB07FBD4204A136801210B4392
:1009700013601E4B1B689B07FBD51C4A1368F821AC
:100980008B4378390B431360536B7F390B435363AD
:10099000164B5B6B9B07FBD5144B5A6BF8218A43B4
:1009A00078390A435A635A6870318A435A605A68E0
:1009B0000F490A405A605A6803218A435A600B4B18
:1009C0005B680C221A42FAD10A4801F0BFF90320F1
:1009D00000F0D2F8002805D1044A536B04218B4360
:1009E000536310BDFFF70EFF0020024000100240CD
:1009F000FFF8FFFF00127A0080B5124FBD4400F0EF
:100A0000E3F8FFF7A7FFFFF771FCFFF7FDFEFFF725
:100A100049FFFFF731FE0C48082101F023F880213F
:100A20000A4800F00FFDFFF79DFE6846FFF7BAFE8B
:100A3000054B1B68064A1268DA63064B186800F01B
:100A4000E5F8ECE700FCFFFF8C0000200004004804
:100A5000840000200400002082B00A4B9969012222
:100A60001143996199690A400092009ADA698021DC
:100A700049050A43DA61DB690B400193019B02B02F
:100A80007047C0460010024010B588B00400142220
:100A9000002103A801F0AAF92268114B9A4201D063
:100AA00008B010BD0F4B9A69802189000A439A61F2
:100AB0009A690A400192019A5A69802189020A437F
:100AC0005A615B690B400293029B402303933D3BB9
:100AD0000493902003A9C00500F0F0FBE0E7C046B6
:100AE000002401400010024082B00268074B9A4285
:100AF00001D002B07047064AD16902231943D1617F
:100B0000D26913400193019BF3E7C0460004004003
:100B10000010024010B586B004001422002101A884
:100B200001F064F922680C4B9A4201D006B010BD66
:100B30000A4B5A698021C9020A435A615B690B401A
:100B40000093009B0123019302220292059301A9C5
:100B5000034800F0B3FBE9E7000400400010024046
:100B600000040048FEE7FEE77047704710B500F04C
:100B70003BF810BD7047000010B504000F4B19780A
:100B8000FA208000FFF7A6FA01000D4B1868FFF766
:100B9000A1FA00F08FFB00280DD1032C01D9012010
:100BA0000AE0013000222100404200F073FB054BB7
:100BB0001C60002000E0012010BDC0460C00002099
:100BC000080000201000002010B5064A136810210C
:100BD0000B4313600320FFF7CFFFFFF73DFF00201B
:100BE00010BDC04600200240034A1168034B1B7829
:100BF0005B1813607047C046140100200C000020F1
:100C0000014B18687047C0461401002070B50400FD
:100C1000FFF7F6FF0500631C02D0044B1B78E418B5
:100C2000FFF7EEFF401BA042FAD370BD0C0000207E
:100C300070B50400026893685B0725D593685B076D
:100C400006D593689B0703D4936810210B439360E8
:100C5000FFF7D6FF050023689B685B0712D5FFF7F7
:100C6000CFFF401B0228F6D923689B685B07F2D5AB
:100C7000A36B10221343A363E36B0F3A1343E363A5
:100C8000012002E0002000E0002070BD70B50400EB
:100C90000268916803230B40012B01D0002070BD36
:100CA0001368DB0702D4D3681B0431D59168052390
:100CB0000B40012B09D0A36B10221343A363E36BFA
:100CC0000F3A1343E3630120E9E7936802210B43E2
:100CD0009360236803221A60FFF792FF05002368E0
:100CE0009B68DB0712D5FFF78BFF401B0228F6D964
:100CF00023689B68DB07F2D5A36B10221343A36321
:100D0000E36B0F3A1343E3630120C8E70020C6E713
:100D10000020C4E730B583B00400002301930368CA
:100D2000996803220A40012A14D09968224A114284
:100D300018D19A6801210A439A60204B186820490B
:100D4000FFF7C8F90190019B002B15D0019B013BD7
:100D50000193F8E71A68D2072BD4DA681204E4D5B5
:100D6000002024E0A36B10221343A363E36B0F3A2C
:100D70001343E36301201AE0FFF742FF05002368F5
:100D80001B68DB0712D4FFF73BFF401B0228F6D994
:100D900023681B68DB07F2D4A36B10221343A36301
:100DA000E36B0F3A1343E363012000E0002003B03C
:100DB00030BD0020FBE7C04617000080080000207F
:100DC00040420F0070B5041E00D1B4E0836B002BCD
:100DD00000D180E0A36BDB0600D5A6E023689A680B
:100DE000042108001040114200D09EE0A26B53493C
:100DF0000A400631FF310A43A263996803220A4080
:100E0000012A6ED0DA6818218A43A1680A43DA60A1
:100E1000226813699B009B0861680B431361226879
:100E2000D36847490B40D360237E9B03627ED20385
:100E30001343A17E4A031343A26A012A58D0802299
:100E400052011343E26813432269022A52D003433A
:100E50002422A25C52001343E27E012A4CD0E269B4
:100E6000C221FF318A4202D0216A0A43134321681A
:100E7000CA681A43CA60E26A802149058A420DD0D5
:100E8000012A0BD0022A09D0032A07D0042A05D050
:100E9000052A03D0062A01D0072A0AD12068416911
:100EA00007229143416120684169E56A2A400A436B
:100EB00042612268D26823490A409A422BD0A36B30
:100EC00012229343023A1343A363E36B0F3A134393
:100ED000E36301202EE0C36334228354FFF7D4FD83
:100EE00078E71A68D2079AD4DA68120497D489E7A7
:100EF0000200A6E70420AAE7002903D180225202BB
:100F00001343ACE7A26B20210A43A263E26B1F39B3
:100F10000A43E263A3E70023E363A36B0322934343
:100F2000023A1343A363002004E0A36B102213438F
:100F3000A363012070BD0120FCE7C046FDFEFFFF5A
:100F40001902FEFFE7FF3F8310B5040003689B68AA
:100F50005B0723D43423C35C012B21D0342301222B
:100F6000C254437E012B14D10020A26B0D4B1A40BA
:100F700080235B001343A3630023E3633422A35461
:100F80002368183A1A602268936804210B4393601F
:100F900010BDFFF7BFFE0028FAD1E6E70220F7E711
:100FA0000220F5E7FEF0FFFF10B504003423C35C18
:100FB000012B17D034230122C254FFF739FE002839
:100FC00003D034230022E25410BD2000FFF75EFE60
:100FD0000028F6D1A36B044A13400432FF321343B6
:100FE000A363EEE70220EFE7FEFEFFFF0368186C45
:100FF000704770477047704770B5040003681D68FC
:101000005E686A0701D5720703D42A0727D532071D
:1010100025D5A26BD20604D4A16B802292000A438C
:10102000A263D968C0221201114212D1A27E002A05
:101030000FD12A070DD59A6852072DD45A680C2172
:101040008A435A60A36B1F4A13400432FF32134392
:10105000A3632000FFF7CDFF23680C221A602B0644
:1010600001D5330621D4ED0615D5F60613D5A36AAE
:10107000012B03D02368DB68DB0709D5E36B022271
:101080001343E36323680E321A602000FFF7B3FFB7
:10109000236810221A6070BDA36B20221343A36340
:1010A000E36B1F3A1343E363D3E7A26B80235B0236
:1010B0001343A3632000FFF79DFF236880221A607B
:1010C000D1E7C046FEFEFFFF30B583B00400002329
:1010D00001933433C35C012B00D17FE03423012220
:1010E000C254026893685B076AD448683C4B9842D4
:1010F0004BD0936A0D680120A84003439362E36AD2
:1011000080225205934213D0013B062B10D98868E8
:101110002268556907232B40984209D0506907235C
:1011200098435061206842698D682B4013434361A6
:101130000B681A00103A022A4CD82A4A1268102B5F
:101140000ED0112B09D080235B041343254A136072
:101150000B68102B07D0002037E08023DB03F4E777
:1011600080231B04F1E7204B18682049FEF7B2FFEB
:1011700083001B185B00019302E0019B013B01937C
:10118000019B002BF9D100201FE0936A0D6801201C
:10119000A840834393620B681A00103A022A1BD8B6
:1011A000104A1268102B09D0112B05D0104B134098
:1011B0000C4A1360002008E00E4BF8E70E4BF6E7F0
:1011C000836B202213438363012034230022E254E3
:1011D00003B030BD0020F8E70020F6E70220F7E773
:1011E00001100000082701400800002040420F00C5
:1011F000FFFFFFFEFFFFBFFFFFFF7FFF70B500286F
:1012000011DB8308134DC0339B005C59032210404F
:10121000C000FC3216008640B44389010A40824077
:1012200022435A5170BD0F230340083B9B080633ED
:101230009B00094A944663445C6803221040C00046
:10124000FC3215008540AC4389010A4082402243AC
:101250005A60E7E700E100E000ED00E0013880239C
:101260005B0498420FD2094A50600948036A1B0286
:101270001B0AC02109060B43036200239360073356
:101280001360002070470120FCE7C04610E000E03A
:1012900000ED00E010B5FFF7B1FF10BD002805DB41
:1012A0001F22024001239340014A13607047C04649
:1012B00000E100E010B5FFF7D1FF10BDF0B583B03D
:1012C000002356E086685F000324BC40A643CC6838
:1012D000BC4034438460446894434E68360901221C
:1012E00032409A402243426053E0DE080836B6009E
:1012F000375805321A4092000F249440A7430C69D6
:10130000944022003A43325056E0032600E0002683
:10131000A64034003C4302329200444E9451444A69
:101320009768EA433E00AE434C68E40201D53E00B4
:101330002E433F4CA660E7683E0016404C68A4026E
:1013400001D53E002E433A4CE66067683E001640E9
:101350004C68A40301D53E002E43354C66602668D8
:1013600032404C68E40301D52A003243304C2260FD
:1013700001330C682200DA4056D001229A40250041
:1013800015401442F4D04E6803243440013C012C33
:1013900098D94C6803222240032A08D0C4685E0012
:1013A0000322B24094438A68B2402243C2604C6830
:1013B00003222240022A98D004685E00032217000C
:1013C000B740BC434F683A40B240224302604C6889
:1013D000C02292021442CBD0164CA66901221643B9
:1013E000A661A46922400192019A9A08941CA40063
:1013F0000E4EA75903241C40A4000F26A640B74355
:101400009026F605B04282D00B4EB04208D00B4E6B
:10141000B04207D00A4EB04200D176E7052677E702
:10142000012675E7022673E703B0F0BD0000014016
:101430000004014000100240000400480008004879
:10144000000C0048426913000B401B0491430B43FE
:10145000836170477047000010B5054B5B69184207
:1014600000D110BD024B5861FFF7F4FFF9E7C04609
:101470000004014030B5036A012293430362056A08
:10148000426883697324A3430C681C4302239D4371
:101490008B682B43154DA84208D0154DA84205D0A6
:1014A000144DA84202D0144DA84206D10825AB43E2
:1014B0001D00CB682B430425AB430C4DA84208D03C
:1014C0000B4DA84205D00B4DA84202D00A4DA842B0
:1014D00005D10A4D2A404D6915438A692A43426065
:1014E00084614A684263036230BDC046002C0140FB
:1014F000004001400044014000480140FFFCFFFF64
:1015000030B5036A184A13400362046A4268C3692B
:101510007325AB430D681D43144B1C408B681B02A5
:101520002343134CA04209D0124CA0420DD0124CC0
:10153000A0420AD0114CA0420FD106E0104C1C4032
:10154000CB681B0223430F4C23400F4C22404C69B5
:10155000240114438A69120122434260C5614A682A
:10156000C263036230BDC046FFFEFFFFFFFDFFFF09
:10157000002C01400040014000440140004801406F
:10158000FFF7FFFFFFFBFFFFFFCFFFFF30B5036A51
:10159000134A13400362046A4368C269114D2A402A
:1015A0000D682D021543104A14408A681203224325
:1015B0000E4CA04208D00E4CA04205D00D4CA042CB
:1015C00002D00D4CA04204D10C4C1C404B699B0135
:1015D00023434360C5614B680364026230BDC0466B
:1015E000FFEFFFFFFF8CFFFFFFDFFFFF002C01403D
:1015F000004001400044014000480140FFBFFFFFA0
:1016000030B5036A046A0125AC4304628469EF358E
:10161000AC43120122430A24A3430B4382610362B9
:1016200030BD000030B5036A1024A343036284690F
:10163000036A054D2C4012032243A024A343090151
:1016400019438261016230BDFF0FFFFF8368702282
:1016500093430B43693A134383607047704700001C
:101660000368214A904206D08022D205904202D0DF
:101670001E4A904203D1702293434A6813431A4A88
:10168000904212D08022D20590420ED0174A90424A
:101690000BD0174A904208D0164A904205D0164AFD
:1016A000904202D0154A904203D1154A1A40CB68A5
:1016B0001343802293434A69134303608B68C362D8
:1016C0000B688362084B984208D00A4B984205D0B9
:1016D000094B984202D0094B984201D10B69036330
:1016E000012343617047C046002C014000040040C4
:1016F00000200040004001400044014000480140FB
:10170000FFFCFFFF70B5041E26D03D23C35C002BF9
:101710001CD03D2502236355210001C9FFF7A0FF1E
:1017200001234622A354083AA3540132A3540132A0
:10173000A3540132A3540132A3540132A354013201
:10174000A3540132A3546355002070BD3C330022E2
:10175000C254FFF7C9F9DCE70120F6E770B5041EB3
:1017600026D03D23C35C002B1CD03D2502236355AE
:10177000210001C9FFF774FF01234622A354083A50
:10178000A3540132A3540132A3540132A3540132B1
:10179000A3540132A3540132A3540132A35463551C
:1017A000002070BD3C330022C254FFF757FFDCE736
:1017B0000120F6E770B5036A102293430362026AC0
:1017C00044688369164D2B400D682D021D4320236C
:1017D0009A438B681B011343124A904209D0124A64
:1017E00090420ED0114A90420BD0114A904210D133
:1017F00007E0802293431E00CB681B013343403A2D
:1018000093430C4A14404A69920022438C69A40015
:101810001443446085614A688263036270BDC046B8
:10182000FF8CFFFF002C01400040014000440140BC
:1018300000480140FFF3FFFF70B504000D003C239A
:10184000C35C012B00D16AE03C230121C154082A6A
:1018500050D01CD8002A38D0042A16D1006829009C
:10186000FFF7A8FF2268916980231B010B43936156
:10187000226893692B490B40936121688B692A691F
:10188000120213438B6100201BE0080019E00C2AB0
:1018900016D100682900FFF779FE2268D1698023FC
:1018A0001B010B43D3612268D3691E490B40D361EE
:1018B0002168CB692A6912021343CB61002000E042
:1018C00001203C230022E25470BD00682900FFF78C
:1018D000D1FD2268936908210B43936122689369C3
:1018E00004398B4393612268936929690B4393619F
:1018F0000020E6E700682900FFF702FE2268D369AE
:1019000008210B43D3612268D36904398B43D36127
:101910002268D36929690B43D3610020D1E70220F3
:10192000D2E7C046FFFBFFFF30B58468034D2C4073
:101930001B0213430B432343836030BDFF00FFFFB3
:1019400010B5040008003C23E35C012B00D177E0D4
:101950003C230122E25401330132E25422689368AD
:1019600038490B409360016860294FD029D840293D
:1019700057D00CD9502922D14168C2682068FFF79E
:101980003FFE20685021FFF761FE002005E020297E
:101990000ED009D930290BD001203D230122E25479
:1019A000013B0022E25410BD002901D0102904D1CE
:1019B0002068FFF74BFE0020EFE70120EDE7012054
:1019C000EBE780225201914236D08022920191426F
:1019D0000DD181684268C3682068FFF7A5FF2268BF
:1019E00091688023DB010B4393600020D5E77029C9
:1019F00024D181684268C3682068FFF795FF226898
:101A0000936877210B4393600020C6E74168C26862
:101A10002068FFF707FE20686021FFF717FE00200F
:101A2000BBE74168C2682068FFF7EAFD20684021F3
:101A3000FFF70CFE0020B0E70020AEE70120ACE786
:101A40000220B0E78800FFFF10B51F2319400124D2
:101A50008C40036AA3430362036A8A401343036210
:101A600010BD000010B50400002936D13E23C35C30
:101A7000013B5A1E9341DBB2002B62D1002945D1B4
:101A80003E330222E25420680122FFF7DDFF236883
:101A90002E4A934208D02E4A934205D02D4A9342B3
:101AA00002D02D4A934204D1596C802212020A437B
:101AB0005A642368254A934238D08022D205934243
:101AC00034D0264A934231D0214A93422ED01A680C
:101AD00001210A431A60002034E0042908D00829B3
:101AE0000DD04123C35C013B5A1E9341DBB2C3E7D7
:101AF0003F23C35C013B5A1E9341DBB2BCE740234A
:101B0000C35C013B5A1E9341DBB2B5E7042905D003
:101B1000082907D041230222E254B4E73F230222DE
:101B2000E254B0E740230222E254ACE7996807226E
:101B30000A40062A07D01A6801210A431A600020C9
:101B400000E0012010BD0020FCE7C046002C014051
:101B500000400140004401400048014000040040B2
:101B600030B53C23C35C012B28D03C230122C25456
:101B700001330132C25403685C689D686E3294433D
:101B80000A6822435A6003680D4A934209D08022B2
:101B9000D205934205D00B4A934202D00A4A93429F
:101BA00004D1802295434A682A439A603D2301224A
:101BB000C254013B0022C254002030BD0220FCE789
:101BC000002C0140000400400040014010B503001B
:101BD0000079002850D01A68002A57D05879012877
:101BE00018D0022820D000280BD001209A79002A92
:101BF0004BD0022A2CD0032A34D0012A1ED0012037
:101C000043E023494C6894434C601A680C682243B3
:101C10000A60EBE71E490868904308601A68486844
:101C200002434A600020E1E71949086802430A605C
:101C30001A68486802434A600020D7E71C68144AC3
:101C4000D168A143D1601B6891680B4393601CE08D
:101C50001C680F4A9168A14391601B68D1680B43CF
:101C6000D36012E019680A4A9468214391601B68A6
:101C7000D1680B43D36008E01C68054A1168A14392
:101C80001160196853688B43536010BD0020FCE756
:101C900000040140F0B5002216E00B699C46C468C0
:101CA0002B006B435E00F618F743B44366465E4371
:101CB0003443C4604C68022C26D04D6804683C4014
:101CC0006B432343036001320C682300D3403BD0B5
:101CD0000123934025001D401C42F4D04B68013B7A
:101CE000012BDAD88F6883682C006C4366003619A4
:101CF000B3437C43234383600E68CC684368B3439B
:101D0000744323434360C8E7FF2D0DD84C69A446B4
:101D1000066A1C006C436C4325012D1BAE436546CF
:101D20006C4334430462C8E74C69A446466A2D0AF2
:101D30002C006C436C436C4325012D1BAE43654660
:101D40006C4334434462B8E70020F0BD014B186097
:101D50007047C046080000200D488546FEF70AFF80
:101D60000C480D490D4A002302E0D458C4500433F6
:101D7000C4188C42F9D30A4A0A4C002301E01360CC
:101D80000432A242FBD300F039F8FEF735FEFEE73D
:101D900000200020000000206400002080370008A0
:101DA0006400002064020020FEE700000EB400B5CD
:101DB0000B499CB01DAB0290069007910491094815
:101DC000094904CB0591006802A9019300F098F934
:101DD0000022029B1A701CB008BC03B01847C04612
:101DE000FFFFFF7F140000200802FFFF030082189E
:101DF000934200D1704719700133F9E770B500269E
:101E00000C4C0D4D641BA410A64209D1002601F014
:101E10008BFC0A4C0A4D641BA410A64205D170BD70
:101E2000B300EB5898470136EEE7B300EB589847FC
:101E30000136F2E778370008783700087C37000869
:101E4000783700087047704770B505000C1E10D039
:101E5000043C2368002B00DAE418280000F0E0F8C6
:101E60001D4A1368002B05D163601460280000F040
:101E7000DFF870BDA34208D9206821188B42F3D146
:101E800019685B6809182160EEE71A005B68002B8F
:101E900001D0A342F9D911685018A0420BD1206893
:101EA0000918501811608342E0D118685B68411826
:101EB00011605360DAE7A04202D90C232B60D5E70A
:101EC000206821188B4203D119685B6809182160CA
:101ED00063605460CAE7C0465C02002070B50F4ED4
:101EE0000D0031680400002902D100F0A5FB30602C
:101EF0002900200000F0A0FB431C03D101256D4206
:101F0000280070BD0323C51C9D43A842F8D0291AA0
:101F1000200000F091FB0130F2D1EFE758020020E1
:101F2000F7B50322CB1C9343083305001F000C2B8D
:101F300034D20C27B94233D8280000F071F8374E5C
:101F400033681C00002C2FD139002800FFF7C6FF92
:101F50000400431C5FD134680094009B002B4AD1DD
:101F6000002C52D023682800E3180099019300F058
:101F700063FB019B834248D123682800FF1A390084
:101F8000FFF7ACFF013040D02368DB1923603368D2
:101F90005A68002A33D1009B336019E0002BC9DA5C
:101FA0000C232B600020FEBD2168C91B20D40B2907
:101FB0000AD9E2192760A34204D132606368116034
:101FC000536005E05A60F9E76268A3420ED13260BF
:101FD000280000F02DF8200007220B30231D90432D
:101FE000C21A9842DFD01B1AA350DCE75A60EFE711
:101FF00023006468A6E7009C63680093ADE71A00BD
:102000005B68A342FBD10023DAE70C2328002B6096
:1020100000F00EF8C6E70760DAE7C0465C02002071
:1020200010B50248FFF70EFF10BDC0465402002055
:1020300010B50248FFF707FF10BDC046540200204C
:10204000F0B58E6885B01F000C000B6802900392FB
:10205000BE4230D80C21625E9021C9000A4228D0CD
:10206000032021695B1A0193636943430198DD0FE3
:10207000ED187B1C1B186D10AB4200D91D005205DA
:1020800028D529000298FFF74BFF061E2CD0019A95
:10209000216900F0EEFAA289184B1A4080231343FD
:1020A000A381019B2661F61826603E006561ED1A4A
:1020B000A560BE4200D93E0032000399206800F0BE
:1020C000A7FA0020A3689B1BA36023689B192360C9
:1020D00005B0F0BD2A00029800F0D4FA061EE0D147
:1020E00021690298FFF7B0FE0C230120029A4042BA
:1020F0001360A28934331343A381E9E77FFBFFFF19
:10210000F0B5A1B003901D008B890F0016001B06CF
:1021100011D50B69002B0ED14021FFF701FF38606C
:102120003861002805D10C23039A13600120404236
:10213000CFE040237B61002308AC636120336376EA
:102140001033A376079535002B78002B01D0252B73
:1021500048D1AB1B0593B5420BD032003900039830
:10216000FFF76EFF013000D1AEE06369059A9B185E
:1021700063612B78002B00D1A6E00122002352429C
:10218000626004A9543252186E1C2360E360A3609D
:102190001370A365544B052218003178059300F0A5
:1021A0005DFA751C00281FD12268D30604D553237D
:1021B00004A95B1820211970130704D5532304A91F
:1021C0005B182B21197033782A2B16D0350000218B
:1021D0000A20E3682A786E1C303A092A50D900296F
:1021E00011D117E00135AFE7059B2268C01A012322
:1021F000834013432E002360CCE7079B191D1B6807
:102200000791002B01DB0B9304E05B42E3600223A8
:10221000134323602B782E2B0CD16B782A2B34D1CF
:10222000079B02351A1D1B680792002B01DA012358
:102230005B4209932D4E03223000297800F00EFAFC
:10224000002806D04023801B8340226801351343B9
:1022500023602978062226486E1C217600F0FEF9BC
:10226000002838D0234B002B22D10722079B0733AD
:102270009343083307936369049A9B18636162E789
:102280004343350001219B18A4E700230A201900CD
:10229000013563602A786E1C303A092A03D9002B75
:1022A000C8D00991C6E74143350001238918F1E7F9
:1022B00007AA009221003A000F4B039800E000BFEC
:1022C0000490049B0133D6D1BB890D985B0600D5E1
:1022D0002CE721B0F0BD07AA009221003A00064B7E
:1022E000039800F07BF8EBE7443700084A37000812
:1022F0004E3700080000000041200008F7B5160026
:1023000001938A680B690C000090934200DA130075
:102310002200336043321278002A01D00133336047
:1023200023689B0602D53368023333602268062394
:1023300015001D401A4227D0230043331B785A1E34
:1023400093412268920630D4220001990098089D9A
:102350004332A847013025D00622236800251340C8
:10236000042B05D13368E568ED1AEB43DB171D40FC
:10237000A3682269934201DD9B1AED180026B5423D
:1023800020D1002010E00135E36832689B1AAB428F
:10239000D2DD2200012301990098089F1932B84725
:1023A0000130F0D101204042FEBD3020E118433120
:1023B000087021005A1C45310978A21843320233B3
:1023C0001170C1E72200012301990098089F1A3279
:1023D000B8470130E6D00136D1E70000F0B58BB048
:1023E00006920A0043320793059004920A7E0C007D
:1023F000109B782A09D8622A0BD8002A00D1C8E09D
:1024000081490391582A00D19CE0250042352A7069
:1024100022E0100063381528F7D8FDF751FE1600AA
:102420001F00F6FFF6FFF6FFF6FF1F00F6FFF6FFB0
:10243000F6FFF6FFAD004F008C00F6FFF6FFBE0082
:10244000F6FF4F00F6FFF6FF900025001A684235B0
:10245000111D196013682B700123ACE0186809681E
:10246000021D0D061FD506681A60674A0A276168B3
:102470000392002E35DA23002D2043331870A1601B
:10248000002916DA0A2776420392049D30003900AB
:10249000FDF7A6FE039B013D5B5C2B70330006003D
:1024A0009F42F3D92AE006681A604906DDD536B2A4
:1024B000DBE7042123688B432360E3E7086819689E
:1024C00040C9050602D4400600D5B6B219604E4B8D
:1024D0000A2703936F2A00D1023F230000224333CF
:1024E0001A706368A360002BCFDB042122688A4343
:1024F0002260002EC9D1049D002BC6D1082F09D11E
:102500002368DB0706D5626823699A4202DC302320
:10251000013D2B70049B5B1B2361079B21000093F3
:102520000598069B09AAFFF7E9FE013048D1012072
:1025300040420BB0F0BD202209680A432260782295
:1025400032490391210045310A701968226840C957
:10255000100602D4500600D5B6B21960D30702D5D2
:10256000202313432360002E01D01027B5E720223B
:10257000236893432360F8E71A680D68101D4969C2
:10258000186013682E0601D5196002E06D06FBD5B0
:1025900019800023049D2361BFE71A68111D19608B
:1025A000156800212800626800F058F8002801D062
:1025B000401B6060636823610023049A1370ACE7DA
:1025C0002A00236906990598079DA8470130AED0D7
:1025D00023689B0715D4099BE0689842A9DA180084
:1025E000A7E72200012306990598079E1932B047F4
:1025F00001309CD00135E368099A9B1AAB42F0DCAC
:10260000E9E70025F7E7C0465537000866370008B8
:1026100010B5884206D800239A4208D0CC5CC45436
:102620000133F9E78B189842F5D2013A00D210BD78
:102630008B5C8354F9E70000002370B5064D04005D
:1026400008002B6000F056F8431C03D12B68002BC8
:1026500000D0236070BDC04650020020C9B282186D
:10266000904201D10020704703788B42FBD00130AB
:10267000F6E7002310B59A4200D110BDCC5CC454DB
:102680000133F8E7F7B506000C001500002905D165
:102690001100FFF745FC04002000FEBD002A03D115
:1026A000FFF7D2FB0024F7E700F01BF80700854294
:1026B00002D84308AB42EFD329003000FFF730FCCB
:1026C00001900028EED02A00BD4200D93A00210036
:1026D0000198FFF7CEFF21003000FFF7B5FB019C0A
:1026E000DAE70B1F1B68181F002B01DA0B58C01804
:1026F00070470000044A03001068002802D0C31885
:10270000136070470148FAE7600200206802002069
:1027100070B500220C4B04000D00FDF79BFD002856
:1027200004D12000290000F075FE70BD064B002288
:102730002000290000F0D2FA00F06CFE80231B0676
:102740009C466044F1E7C0460000E041F0B55746C2
:10275000DE464E464546E0B51F000B031B0B160038
:102760009A46CA0F4B000400934687B05B0D00D118
:10277000D5E0BB4A934200D1F8E05146420FC90070
:102780000A43802109041143C2009146B54A8A4692
:102790009D180023984602933C037B00FA0F3000FB
:1027A000240B5B0D009200D196E0AD4A934231D0EC
:1027B000720FE4002243802424041443A94AF00049
:1027C000944663445B195A1C0192424600260A2A29
:1027D00042DC5A4600994A4093464246022A32DC7D
:1027E000013A012A00D949E1022E00D1CAE0012EA6
:1027F0003DD100230024002210005A461B0523432C
:10280000D2071343190007B0F0BCBB46B246A94635
:10281000A046F0BD924B2643EB18002E00D1BBE042
:102820000322414611435A46884600994A40802176
:1028300009018C4629006144019141460A2900DDC5
:1028400033E293460326424601279740A6213A00E9
:10285000C9000A400F4231D0029E022E00D135E25B
:10286000032E00D1D2E154464846012EC1D0019A30
:102870007D4B94466344002B00DCC0E0420709D046
:102880000F220240042A05D0021D824280414042AC
:1028900024181000E20106D5744B019A1C408023D5
:1028A0009446DB006344724A93426BDC6207C008C3
:1028B00064025B050243240B5B0D9DE790218900B8
:1028C0000F4263D188223A4200D1D7E0009BA24652
:1028D0009B4681460296BFE72300334300D17FE049
:1028E000002C00D1ADE12000FDF7BEFC020003008A
:1028F0000B3A1D201900821A30000839D0408C4054
:102900000443300088405B4AEB1A944663445A1CE7
:102910000192424600260A2A00DC5AE79CE7534609
:102920000343994654D05346002B00D177E15046DB
:10293000FDF79AFC0B235B429C4602008444110085
:102940005046083988401D23804660461B1A2000E7
:10295000D8400300404603439A4623008B409946E3
:102960000023444D9846AD1A029315E752460243A0
:10297000914626D100221D0002239246083290463D
:10298000029309E700240022354B35E70023802419
:102990009B462403324B2FE70222414611438022FB
:1029A000120194462A006244884601920A2900DDF9
:1029B00052E75A460020009904004A4093460226F6
:1029C0000BE70C221D000323814690460293E3E6A9
:1029D00000239A4604339846033B00250293DBE626
:1029E000424601331A432B0090465A1C019242463C
:1029F0000024002001260A2A00DCEAE62CE7012256
:102A0000D21A382A00DDF4E61F2A00DC2AE11F2151
:102A10004942CB1A2100D9400B00202A05D0164A82
:102A2000019D94466544AC402043421E90411843AA
:102A3000072319000024014003420CD00F23034058
:102A4000042B00D140E1031D8342A44118006442DD
:102A500061076402240BC20800230A43CCE6C04687
:102A6000FF07000001FCFFFFFF030000FFFFFFFE68
:102A7000FE0700000DFCFFFF3E04000049464A46E9
:102A80000904090C0D00160C020C0004000C45434F
:102A9000AC4605007543A84615000F00754300922B
:102AA00002952A00009D6F4365462D0CA9464744B8
:102AB0004F44B84505D9150080225202904645443E
:102AC00002953D0C039565462D043F042D0CAC4644
:102AD0003D0065440495250C2404240CAC462500D7
:102AE0007543A84665460F006943414489466743DC
:102AF000390C49446E43884503D9802252029046DE
:102B000046440D0CA846350045440595039D3F04F9
:102B1000A8463F0C0904C919884445460395554603
:102B20002E04360C2F0C350045437843814638007F
:102B3000A8462D0CAA46009A504372434A44524478
:102B4000914503D980256D02A9464844150CA94634
:102B500045462D042D0CA84665467D431204484485
:102B60009044A9463200654662436E437C43170C8D
:102B70003619BF19BC4203D980246402A446E1443B
:102B8000029C039EA446059D66448E428941AC4644
:102B900012043C04120CA2186244494254184644E0
:102BA000A4464645A44182466442A046AA429241B8
:102BB0008C458941E244D044494252420A43A045EF
:102BC000A44182458941644249420C4341463F0C3D
:102BD000D2191219CC0D049970020843411E884184
:102BE00041464A44F60D5202304349021443084319
:102BF000D20135D50122430802401343E0071843B0
:102C0000640834E6009BA2469B46814680245346D6
:102C100024031C4324034A462E4B240BECE5FDF70A
:102C200023FB15239C4684440200634620321C2B60
:102C300000DC84E6002399462300083883409A4646
:102C40008EE6FDF711FB02000300153220331C2A2B
:102C500000DC4EE602003400083A0020944052E6C0
:102C6000019304E61C4B21009C460300019DD340C8
:102C70006544A94019430300AB40581E83411943E2
:102C80000800D4404B0709D00F230B40042B05D07C
:102C90000B1D8B428041404224181800230200D4AF
:102CA000D6E6012300240022A6E50F29AAD180231D
:102CB00052461B031A42A9D01C42A7D11C43009BB9
:102CC00002009B46034B97E50024C1E60024014B1C
:102CD000220091E5FF0700001E040000F0B54E46FB
:102CE0004546DE465746E0B585B0009001910C039D
:102CF0004F00CE0F610A009CB046640F0C43009950
:102D00007F0DC80011001A001B039C460091019220
:102D100051004B0D9946019B009DD90F63466A0FE8
:102D20005B0A1343EA0094469346C14A0390029318
:102D3000914500D1CDE0012569404D467D1BAA4655
:102D40008E4200D180E0002D00DC35E349460029A9
:102D500000D1DFE0974200D194E152460125382AA4
:102D600019DC8022029B12041343029352461F2A4D
:102D700000DDE3E1534620226146029DD21A9540D0
:102D8000D9400D43614691400A00511E8A411543C6
:102D9000029ADA40A41A451BA84280414042241AF4
:102DA000230200D43DE16402640A002C00D147E113
:102DB0002000FDF759FA0300083B20212800CA1A19
:102DC000D0409C4002009D4022439F4200DD77E1BD
:102DD000D81B0130091A2C008D40C4406B1E9D4148
:102DE0001300C2408B402543002714001D436B078E
:102DF00009D00F232B40042B05D02B1DAB42AD4136
:102E00006D4264191D00230200D440E1884A013755
:102E1000974200D101E1012643468649ED08214051
:102E20004A072A437C054D022D0B640D1E402405E4
:102E30002C43F60734431000210005B0F0BCBB461C
:102E4000B246A946A046F0BD002D00DCD0E24946BE
:102E5000002900D0D4E06146029B194300D12BE148
:102E6000691E012D00D1D9E1954200D10AE1012569
:102E7000382917DC8A4653461F2B00DDE7E1202264
:102E8000D21A029B614693401D005346D9406346C7
:102E900093401A000D43511E8A4153461543029A2E
:102EA000DA40A4182D18854280414042241823029C
:102EB00000D4B6E05E4B01379F4200D1ADE0012166
:102EC0005C4B6A081C4029400A43E5071543640827
:102ED0008DE7594A029B92466246BA441A432CD067
:102EE0008E422ED05246002A60D0002F00D1DBE067
:102EF00063460E00029CD80862070243E4081300F0
:102F0000234300D154E280252D0325432D03484C53
:102F10002D0B8CE76146029B194300D1CCE02900C0
:102F20000139012D00D188E1954200D1AAE00125A7
:102F3000382900DD2FE78A4618E7012251408E42EA
:102F4000D0D15346002B00D1BEE0002F00D038E195
:102F5000CA462200024300D1E2E15346591E012B2A
:102F600000D10DE2324A924500D1D2E10127382941
:102F700013DC1F2900DDEEE12022029B521A2500FE
:102F800007009A46CC4090409540CF40A244421E54
:102F9000904153462F43074302933D0065446545E6
:102FA0009241029B52424F46D41880E7234A7D1C2F
:102FB000154200D0AAE062462500029B05431A4351
:102FC000002F00D0F5E0002D00D16BE1002A00D1E8
:102FD00052E16346C51A029BE21AA8429B415B423A
:102FE000D31A1A0200D4D5E163461D1AAC459241AA
:102FF0000126029B52421C1B8846A41A0E40F6E68C
:1030000097423FD052460125382A00DD4AE7802208
:10301000029B1204134302932DE73C00002500227B
:1030200005E707232B40002B00D0E2E66BE0C0460B
:10303000FF070000FFFF7FFF01F8FFFFFE07000012
:103040002800FDF711F9030018331F2B00DCB4E64C
:103050002A00083882409F4200DDB9E0DB1B581C83
:103060001F2800DCA0E115001F3BDD40202805D013
:1030700040231B1A9A40531E9A41154307230027E9
:103080002B40D0E7C00862070243E40837E7EA08AC
:1030900063071A43D34BE4089F4200D12FE7240370
:1030A000250B7C05640DC2E6CA462200024358D1B6
:1030B00063460E00029C0393039B5746DA08E7E73A
:1030C000C94CFF1A144092E6C84D7A1C2A4200D01F
:1030D00084E022000243002F00D0EFE0002A00D15C
:1030E000E5E0624602990A4300D1C5E06346C5188F
:1030F0008C4685428041644440422418230202D514
:10310000B94B01371C40BA460395D5E76246851A8C
:10311000A842924152429146029BE31A1A004B4642
:10312000D21A130091461A026CD44A464C462A43DE
:1031300000D03AE600260024002578E6029953469E
:103140000D00203AD540202B06D04022D21A0B0089
:10315000934062461A4393465B465A1E93411D4371
:1031600019E653465A1E012B00D1C6E09D4EB245CA
:1031700000D1BDE688460E000125382A10DC1F2A42
:103180007FDC20212500891A070088408D40D74028
:10319000D440411E8841029B3D431B1B05430293C3
:1031A0006246551BAC459241029B52424F469C1AC7
:1031B000F6E5002D00D0B7E0002A00D1F0E00126AE
:1031C0000E4063460298D90842070A43C40896E6AF
:1031D000854CFF1A14406207E40860E781498A427F
:1031E00000D1C9E06346C11881428041029B404240
:1031F000E3181B18DD075C08072349080D43170077
:103200002B4010E763461D1AAC4592410126029BF4
:1032100052421C1B8846A41A0E40C6E56346C518D8
:10322000029B854280419C46404264442418012709
:10323000230200D4F5E6022741E66346C51AA842F8
:103240008041029B4042E41A0127241AA8E5029D0E
:1032500052462B00203AD34019005346202B06D06B
:103260004022D21A2B00934062461A4393465D4691
:103270006B1E9D410D4315E66207C0080243E4083A
:103280000DE7110027002039CF40202A05D040212A
:103290008A1A9440250005430395039D6A1E9541B3
:1032A0003D437DE7002A00D144E701260E406346F6
:1032B000D908029B5A070A43DC08F0E6002A28D006
:1032C0006246029FC0083A4300D1DCE66207104321
:1032D0008022E4081203144209D0FD08154206D1E9
:1032E000634601262C00D8087B0718430E40420F86
:1032F000C000C0085207024301E663461D1AAC45F0
:103300009241029B52421C1B0E0088460127A41AC0
:1033100046E56346D908029B5A070A43DC08EEE5F6
:103320006346029C0393C7E6C008002A00D1AAE6C0
:10333000620710438022E40812031442D7D0029F90
:10334000FD081542D3D163460126D8087B072C001F
:1033500018430E40CBE70A002700203AD740202927
:1033600005D04022521A9440250005430395039D41
:103370006A1E95412F4310E614000025002256E5F1
:10338000029B60449946604592414C44524205007C
:10339000A4184CE71A001C002A4300D0B3E6C9E683
:1033A000802400262403AEE520210025091A17E514
:1033B000002200250B4C3AE5002D00D1F6E54B46E6
:1033C000DA1B9246002F00D16FE6382A05DC8026F2
:1033D0003604344388460E00D1E688460E000125A7
:1033E000DEE6C046FF070000FFFF7FFFFE0700008C
:1033F000002D00D168E64B46D91B002F01D18A462B
:10340000A7E50127382900DDC7E58022120414430F
:10341000AFE5C0460B00020070B5164D0C0382B03C
:103420004900002000920193240B490DDE0FA942B0
:1034300004DD1148814203DD104BF01802B070BD6D
:103440008020400320430E4C641A1F2C08DD0D4BD6
:103450005B1AD84003005842002EEFD11800EDE768
:10346000094B009A9C46030061448B40E2401343A1
:10347000F1E7C046FE0300001D040000FFFFFF7FD0
:103480003304000013040000EDFBFFFF10B5041E21
:1034900010D0FCF7E9FE0E4B1B1A5B055B0D0A28EA
:1034A0000FDC0B222100121AD14015300A03844090
:1034B000120B01E0002300221B051343200019001A
:1034C00010BD22000B38824012030024120BF3E7D8
:1034D0001E040000F0B55746DE464E464546E0B5B0
:1034E0000D000400E80F83460903D80F090B82463C
:1034F00019488C461F0369005E00490D3F0B760D8D
:10350000814218D086420FD00120B1420DD1BC4576
:103510000BD1944209D1D3451CD0002905D1604676
:103520002043431E984100E00120F0BCBB46B24658
:10353000A946A046F0BD01208E42F6D1614639432E
:103540000F0017432743F0D15B465246981A431E9B
:103550009841EAE70020E8E7FF070000F0B557468A
:103560004E464546DE46E0B50D000F03390B83B0ED
:103570000400804601915800E90F314F400D8C4600
:103580006E00190382469146760D090BD80FBE4294
:103590001FD0BA450FD0002E2FD15546019E34437F
:1035A000002D27D10A433AD0002C45D100281AD14A
:1035B0000120404217E011433BD1002E02D1019F70
:1035C0002743F3D0844509D16346002BF0D06046F1
:1035D00009E0019F27432CD1B24524D06346022045
:1035E000013B1840013803B0F0BCBB46B246A946C7
:1035F000A046F0BD002CD9D0E4E75446002CEDD015
:103600008445EBD15645E9DCDEDB019B8B42E5D8F6
:10361000DAD1C845E2D80020C845E4D2D4E700207A
:10362000002CE0D0DAE7114303D18445D6D1002045
:10363000D9E702204042D6E78445E6D0CEE7C0462F
:10364000FF070000F0B557464E464546DE46E0B55A
:103650000D000F0304008046E80F390B844683B049
:103660005800304F400D01911E036900824691467B
:10367000490D360BD80FB94220D0BA450FD00029DA
:103680002BD101990C435146002937D1324338D010
:10369000002C44D1002819D10120404216E01643E5
:1036A00013D1002902D1019F2743F3D0844520D0B4
:1036B00063460220013B1840013807E0019F274381
:1036C00003D18A45F4D116431FD0022003B0F0BCC9
:1036D000BB46B246A946A046F0BD5446002CE7D0F2
:1036E0008445E5D15145E3DC03DB019BB342DFD8E0
:1036F0000FD06346002BCFD06046E7E7002CC9D03F
:10370000D4E70020002CE1D0D2E78445D0D10020BE
:10371000DCE7C845CCD80020C845D7D2E9E78445C6
:10372000E3D0C5E7FF070000F8B5C046F8BC08BC09
:103730009E467047F8B5C046F8BC08BC9E46704728
:10374000256C7500232D302B2000686C4C006566BD
:1037500067454647003031323334353637383941E2
:1037600042434445460030313233343536373839F8
:083770006162636465660000FC
:04377800CD02000876
:04377C00A50200089A
:1037800002000000F401000000127A0001000000B5
:1037900004000000180000200000000018010020B4
:1037A00080010020E801002000000000000000006F
:1037B0000000000000000000000000000000000009
:1037C00000000000000000000000000000000000F9
:1037D00000000000000000000000000000000000E9
:0437E00000000000E5
:0400000508001D5979
:00000001FF
